{
  "_format": "hh-sol-artifact-1",
  "contractName": "NFTMarketplace",
  "sourceName": "contracts/NFTMarketplace.sol",
  "abi": [
    {
      "inputs": [],
      "stateMutability": "nonpayable",
      "type": "constructor"
    },
    {
      "anonymous": false,
      "inputs": [
        {
          "indexed": true,
          "internalType": "address",
          "name": "owner",
          "type": "address"
        },
        {
          "indexed": true,
          "internalType": "address",
          "name": "approved",
          "type": "address"
        },
        {
          "indexed": true,
          "internalType": "uint256",
          "name": "tokenId",
          "type": "uint256"
        }
      ],
      "name": "Approval",
      "type": "event"
    },
    {
      "anonymous": false,
      "inputs": [
        {
          "indexed": true,
          "internalType": "address",
          "name": "owner",
          "type": "address"
        },
        {
          "indexed": true,
          "internalType": "address",
          "name": "operator",
          "type": "address"
        },
        {
          "indexed": false,
          "internalType": "bool",
          "name": "approved",
          "type": "bool"
        }
      ],
      "name": "ApprovalForAll",
      "type": "event"
    },
    {
      "anonymous": false,
      "inputs": [
        {
          "indexed": false,
          "internalType": "uint256",
          "name": "_fromTokenId",
          "type": "uint256"
        },
        {
          "indexed": false,
          "internalType": "uint256",
          "name": "_toTokenId",
          "type": "uint256"
        }
      ],
      "name": "BatchMetadataUpdate",
      "type": "event"
    },
    {
      "anonymous": false,
      "inputs": [
        {
          "indexed": false,
          "internalType": "uint256",
          "name": "_tokenId",
          "type": "uint256"
        }
      ],
      "name": "MetadataUpdate",
      "type": "event"
    },
    {
      "anonymous": false,
      "inputs": [
        {
          "indexed": true,
          "internalType": "address",
          "name": "from",
          "type": "address"
        },
        {
          "indexed": true,
          "internalType": "address",
          "name": "to",
          "type": "address"
        },
        {
          "indexed": true,
          "internalType": "uint256",
          "name": "tokenId",
          "type": "uint256"
        }
      ],
      "name": "Transfer",
      "type": "event"
    },
    {
      "inputs": [
        {
          "internalType": "address",
          "name": "to",
          "type": "address"
        },
        {
          "internalType": "uint256",
          "name": "tokenId",
          "type": "uint256"
        }
      ],
      "name": "approve",
      "outputs": [],
      "stateMutability": "nonpayable",
      "type": "function"
    },
    {
      "inputs": [
        {
          "internalType": "address",
          "name": "owner",
          "type": "address"
        }
      ],
      "name": "balanceOf",
      "outputs": [
        {
          "internalType": "uint256",
          "name": "",
          "type": "uint256"
        }
      ],
      "stateMutability": "view",
      "type": "function"
    },
    {
      "inputs": [
        {
          "internalType": "string",
          "name": "tokenURI",
          "type": "string"
        },
        {
          "internalType": "uint256",
          "name": "price",
          "type": "uint256"
        }
      ],
      "name": "createToken",
      "outputs": [
        {
          "internalType": "uint256",
          "name": "",
          "type": "uint256"
        }
      ],
      "stateMutability": "payable",
      "type": "function"
    },
    {
      "inputs": [
        {
          "internalType": "uint256",
          "name": "tokenId",
          "type": "uint256"
        }
      ],
      "name": "executeSale",
      "outputs": [],
      "stateMutability": "payable",
      "type": "function"
    },
    {
      "inputs": [],
      "name": "getAllNFTs",
      "outputs": [
        {
          "components": [
            {
              "internalType": "uint256",
              "name": "tokenId",
              "type": "uint256"
            },
            {
              "internalType": "address payable",
              "name": "owner",
              "type": "address"
            },
            {
              "internalType": "address payable",
              "name": "seller",
              "type": "address"
            },
            {
              "internalType": "uint256",
              "name": "price",
              "type": "uint256"
            },
            {
              "internalType": "bool",
              "name": "currentlyListed",
              "type": "bool"
            }
          ],
          "internalType": "struct NFTMarketplace.ListedToken[]",
          "name": "",
          "type": "tuple[]"
        }
      ],
      "stateMutability": "view",
      "type": "function"
    },
    {
      "inputs": [
        {
          "internalType": "uint256",
          "name": "tokenId",
          "type": "uint256"
        }
      ],
      "name": "getApproved",
      "outputs": [
        {
          "internalType": "address",
          "name": "",
          "type": "address"
        }
      ],
      "stateMutability": "view",
      "type": "function"
    },
    {
      "inputs": [],
      "name": "getCurrentToeknId",
      "outputs": [
        {
          "internalType": "uint256",
          "name": "",
          "type": "uint256"
        }
      ],
      "stateMutability": "view",
      "type": "function"
    },
    {
      "inputs": [],
      "name": "getLatestIdToListedToken",
      "outputs": [
        {
          "components": [
            {
              "internalType": "uint256",
              "name": "tokenId",
              "type": "uint256"
            },
            {
              "internalType": "address payable",
              "name": "owner",
              "type": "address"
            },
            {
              "internalType": "address payable",
              "name": "seller",
              "type": "address"
            },
            {
              "internalType": "uint256",
              "name": "price",
              "type": "uint256"
            },
            {
              "internalType": "bool",
              "name": "currentlyListed",
              "type": "bool"
            }
          ],
          "internalType": "struct NFTMarketplace.ListedToken",
          "name": "",
          "type": "tuple"
        }
      ],
      "stateMutability": "view",
      "type": "function"
    },
    {
      "inputs": [],
      "name": "getListPrice",
      "outputs": [
        {
          "internalType": "uint256",
          "name": "",
          "type": "uint256"
        }
      ],
      "stateMutability": "view",
      "type": "function"
    },
    {
      "inputs": [
        {
          "internalType": "uint256",
          "name": "tokenId",
          "type": "uint256"
        }
      ],
      "name": "getListedForTokenId",
      "outputs": [
        {
          "components": [
            {
              "internalType": "uint256",
              "name": "tokenId",
              "type": "uint256"
            },
            {
              "internalType": "address payable",
              "name": "owner",
              "type": "address"
            },
            {
              "internalType": "address payable",
              "name": "seller",
              "type": "address"
            },
            {
              "internalType": "uint256",
              "name": "price",
              "type": "uint256"
            },
            {
              "internalType": "bool",
              "name": "currentlyListed",
              "type": "bool"
            }
          ],
          "internalType": "struct NFTMarketplace.ListedToken",
          "name": "",
          "type": "tuple"
        }
      ],
      "stateMutability": "view",
      "type": "function"
    },
    {
      "inputs": [],
      "name": "getMyNfts",
      "outputs": [
        {
          "components": [
            {
              "internalType": "uint256",
              "name": "tokenId",
              "type": "uint256"
            },
            {
              "internalType": "address payable",
              "name": "owner",
              "type": "address"
            },
            {
              "internalType": "address payable",
              "name": "seller",
              "type": "address"
            },
            {
              "internalType": "uint256",
              "name": "price",
              "type": "uint256"
            },
            {
              "internalType": "bool",
              "name": "currentlyListed",
              "type": "bool"
            }
          ],
          "internalType": "struct NFTMarketplace.ListedToken[]",
          "name": "",
          "type": "tuple[]"
        }
      ],
      "stateMutability": "view",
      "type": "function"
    },
    {
      "inputs": [
        {
          "internalType": "address",
          "name": "owner",
          "type": "address"
        },
        {
          "internalType": "address",
          "name": "operator",
          "type": "address"
        }
      ],
      "name": "isApprovedForAll",
      "outputs": [
        {
          "internalType": "bool",
          "name": "",
          "type": "bool"
        }
      ],
      "stateMutability": "view",
      "type": "function"
    },
    {
      "inputs": [],
      "name": "name",
      "outputs": [
        {
          "internalType": "string",
          "name": "",
          "type": "string"
        }
      ],
      "stateMutability": "view",
      "type": "function"
    },
    {
      "inputs": [
        {
          "internalType": "uint256",
          "name": "tokenId",
          "type": "uint256"
        }
      ],
      "name": "ownerOf",
      "outputs": [
        {
          "internalType": "address",
          "name": "",
          "type": "address"
        }
      ],
      "stateMutability": "view",
      "type": "function"
    },
    {
      "inputs": [
        {
          "internalType": "address",
          "name": "from",
          "type": "address"
        },
        {
          "internalType": "address",
          "name": "to",
          "type": "address"
        },
        {
          "internalType": "uint256",
          "name": "tokenId",
          "type": "uint256"
        }
      ],
      "name": "safeTransferFrom",
      "outputs": [],
      "stateMutability": "nonpayable",
      "type": "function"
    },
    {
      "inputs": [
        {
          "internalType": "address",
          "name": "from",
          "type": "address"
        },
        {
          "internalType": "address",
          "name": "to",
          "type": "address"
        },
        {
          "internalType": "uint256",
          "name": "tokenId",
          "type": "uint256"
        },
        {
          "internalType": "bytes",
          "name": "data",
          "type": "bytes"
        }
      ],
      "name": "safeTransferFrom",
      "outputs": [],
      "stateMutability": "nonpayable",
      "type": "function"
    },
    {
      "inputs": [
        {
          "internalType": "address",
          "name": "operator",
          "type": "address"
        },
        {
          "internalType": "bool",
          "name": "approved",
          "type": "bool"
        }
      ],
      "name": "setApprovalForAll",
      "outputs": [],
      "stateMutability": "nonpayable",
      "type": "function"
    },
    {
      "inputs": [
        {
          "internalType": "bytes4",
          "name": "interfaceId",
          "type": "bytes4"
        }
      ],
      "name": "supportsInterface",
      "outputs": [
        {
          "internalType": "bool",
          "name": "",
          "type": "bool"
        }
      ],
      "stateMutability": "view",
      "type": "function"
    },
    {
      "inputs": [],
      "name": "symbol",
      "outputs": [
        {
          "internalType": "string",
          "name": "",
          "type": "string"
        }
      ],
      "stateMutability": "view",
      "type": "function"
    },
    {
      "inputs": [
        {
          "internalType": "uint256",
          "name": "tokenId",
          "type": "uint256"
        }
      ],
      "name": "tokenURI",
      "outputs": [
        {
          "internalType": "string",
          "name": "",
          "type": "string"
        }
      ],
      "stateMutability": "view",
      "type": "function"
    },
    {
      "inputs": [
        {
          "internalType": "address",
          "name": "from",
          "type": "address"
        },
        {
          "internalType": "address",
          "name": "to",
          "type": "address"
        },
        {
          "internalType": "uint256",
          "name": "tokenId",
          "type": "uint256"
        }
      ],
      "name": "transferFrom",
      "outputs": [],
      "stateMutability": "nonpayable",
      "type": "function"
    },
    {
      "inputs": [
        {
          "internalType": "uint256",
          "name": "_listPrice",
          "type": "uint256"
        }
      ],
      "name": "updateListPrice",
      "outputs": [],
      "stateMutability": "payable",
      "type": "function"
    }
  ],
  "bytecode": "0x6080604052662386f26fc10000600a553480156200001c57600080fd5b50604080518082018252600e81526d4e46544d61726b6574706c61636560901b6020808301918252835180850190945260048452634e46544d60e01b9084015281519192916200006f91600091620000a0565b50805162000085906001906020840190620000a0565b5050600780546001600160a01b031916331790555062000183565b828054620000ae9062000146565b90600052602060002090601f016020900481019282620000d257600085556200011d565b82601f10620000ed57805160ff19168380011785556200011d565b828001600101855582156200011d579182015b828111156200011d57825182559160200191906001019062000100565b506200012b9291506200012f565b5090565b5b808211156200012b576000815560010162000130565b600181811c908216806200015b57607f821691505b602082108114156200017d57634e487b7160e01b600052602260045260246000fd5b50919050565b6120c180620001936000396000f3fe6080604052600436106101355760003560e01c8063879d112b116100ab578063b88d4fde1161006f578063b88d4fde14610349578063c322579c14610369578063c87b56dd1461037c578063d1a88ae51461039c578063e0391b09146103b1578063e985e9c5146103c657600080fd5b8063879d112b146102bf57806395d89b41146102d457806398c3df16146102e95780639b1225c414610316578063a22cb4651461032957600080fd5b806323b872dd116100fd57806323b872dd1461020d57806342842e0e1461022d5780636352211e1461024d57806368f1945f1461026d57806370a082311461028c57806372b3b620146102ac57600080fd5b806301ffc9a71461013a578063047b07bf1461016f57806306fdde0314610191578063081812fc146101b3578063095ea7b3146101eb575b600080fd5b34801561014657600080fd5b5061015a610155366004611cde565b61040f565b60405190151581526020015b60405180910390f35b34801561017b57600080fd5b5061018461043a565b6040516101669190611e5c565b34801561019d57600080fd5b506101a661067f565b6040516101669190611eaa565b3480156101bf57600080fd5b506101d36101ce366004611d6c565b610711565b6040516001600160a01b039091168152602001610166565b3480156101f757600080fd5b5061020b610206366004611cb5565b610738565b005b34801561021957600080fd5b5061020b610228366004611bc7565b610853565b34801561023957600080fd5b5061020b610248366004611bc7565b610884565b34801561025957600080fd5b506101d3610268366004611d6c565b61089f565b34801561027957600080fd5b50600a545b604051908152602001610166565b34801561029857600080fd5b5061027e6102a7366004611b7b565b6108ff565b61027e6102ba366004611d16565b610985565b3480156102cb57600080fd5b5061027e610a72565b3480156102e057600080fd5b506101a6610a82565b3480156102f557600080fd5b50610309610304366004611d6c565b610a91565b6040516101669190611fa1565b61020b610324366004611d6c565b610afb565b34801561033557600080fd5b5061020b610344366004611c7b565b610c59565b34801561035557600080fd5b5061020b610364366004611c02565b610c68565b61020b610377366004611d6c565b610c9a565b34801561038857600080fd5b506101a6610397366004611d6c565b610d05565b3480156103a857600080fd5b50610309610e16565b3480156103bd57600080fd5b50610184610e8d565b3480156103d257600080fd5b5061015a6103e1366004611b95565b6001600160a01b03918216600090815260056020908152604080832093909416825291909152205460ff1690565b60006001600160e01b03198216632483248360e11b1480610434575061043482610fd4565b92915050565b6060600061044760085490565b905060008060005b838110156104df5733600b6000610467846001611faf565b81526020810191909152604001600020600101546001600160a01b031614806104ba575033600b600061049b846001611faf565b81526020810191909152604001600020600201546001600160a01b0316145b156104cd576104ca600184611faf565b92505b806104d78161202e565b91505061044f565b5060008267ffffffffffffffff81111561050957634e487b7160e01b600052604160045260246000fd5b60405190808252806020026020018201604052801561054257816020015b61052f611a22565b8152602001906001900390816105275790505b50905060005b848110156106765733600b6000610560846001611faf565b81526020810191909152604001600020600101546001600160a01b031614806105b3575033600b6000610594846001611faf565b81526020810191909152604001600020600201546001600160a01b0316145b156106645760006105c5826001611faf565b6000818152600b6020908152604091829020825160a0810184528154815260018201546001600160a01b039081169382019390935260028201549092169282019290925260038201546060820152600482015460ff16151560808201528551929350909185908790811061064957634e487b7160e01b600052603260045260246000fd5b602090810291909101015261065f600186611faf565b945050505b8061066e8161202e565b915050610548565b50949350505050565b60606000805461068e90611ff3565b80601f01602080910402602001604051908101604052809291908181526020018280546106ba90611ff3565b80156107075780601f106106dc57610100808354040283529160200191610707565b820191906000526020600020905b8154815290600101906020018083116106ea57829003601f168201915b5050505050905090565b600061071c82611024565b506000908152600460205260409020546001600160a01b031690565b60006107438261089f565b9050806001600160a01b0316836001600160a01b031614156107b65760405162461bcd60e51b815260206004820152602160248201527f4552433732313a20617070726f76616c20746f2063757272656e74206f776e656044820152603960f91b60648201526084015b60405180910390fd5b336001600160a01b03821614806107d257506107d281336103e1565b6108445760405162461bcd60e51b815260206004820152603d60248201527f4552433732313a20617070726f76652063616c6c6572206973206e6f7420746f60448201527f6b656e206f776e6572206f7220617070726f76656420666f7220616c6c00000060648201526084016107ad565b61084e8383611086565b505050565b61085d33826110f4565b6108795760405162461bcd60e51b81526004016107ad90611ebd565b61084e838383611172565b61084e83838360405180602001604052806000815250610c68565b6000818152600260205260408120546001600160a01b0316806104345760405162461bcd60e51b8152602060048201526018602482015277115490cdcc8c4e881a5b9d985b1a59081d1bdad95b88125160421b60448201526064016107ad565b60006001600160a01b0382166109695760405162461bcd60e51b815260206004820152602960248201527f4552433732313a2061646472657373207a65726f206973206e6f7420612076616044820152683634b21037bbb732b960b91b60648201526084016107ad565b506001600160a01b031660009081526003602052604090205490565b6000600a5434146109e25760405162461bcd60e51b815260206004820152602160248201527f5072696365206d75737420626520657175616c20746f206c69737420707269636044820152606560f81b60648201526084016107ad565b60008211610a325760405162461bcd60e51b815260206004820181905260248201527f6d616b65207375726520707269636520776f6e74206265206e6567617469766560448201526064016107ad565b610a40600880546001019055565b6000610a4b60085490565b9050610a5733826112d6565b610a6181856112f0565b610a6b81846113c2565b9392505050565b6000610a7d60085490565b905090565b60606001805461068e90611ff3565b610a99611a22565b506000908152600b6020908152604091829020825160a0810184528154815260018201546001600160a01b03908116938201939093526002820154909216928201929092526003820154606082015260049091015460ff161515608082015290565b6000818152600b6020526040902060030154348114610b825760405162461bcd60e51b815260206004820152603a60248201527f706c65617365207375626d6974207468652061736b696e67207072696365206660448201527f6f7220746865206e667420696e206f7264657220746f2062757900000000000060648201526084016107ad565b6000828152600b602052604090206002810180546004909201805460ff191660011790556001600160a01b03198216331790556001600160a01b0316610bcc600980546001019055565b610bd7303385611172565b610be13084610738565b600754600a546040516001600160a01b039092169181156108fc0291906000818181858888f19350505050158015610c1d573d6000803e3d6000fd5b506040516001600160a01b038216903480156108fc02916000818181858888f19350505050158015610c53573d6000803e3d6000fd5b50505050565b610c6433838361145f565b5050565b610c7233836110f4565b610c8e5760405162461bcd60e51b81526004016107ad90611ebd565b610c538484848461152e565b6007546001600160a01b03163314610d005760405162461bcd60e51b8152602060048201526024808201527f4f6e6c79206f776e65722063616e2075706461746520746865206c69737420706044820152637269636560e01b60648201526084016107ad565b600a55565b6060610d1082611024565b60008281526006602052604081208054610d2990611ff3565b80601f0160208091040260200160405190810160405280929190818152602001828054610d5590611ff3565b8015610da25780601f10610d7757610100808354040283529160200191610da2565b820191906000526020600020905b815481529060010190602001808311610d8557829003601f168201915b505050505090506000610dc060408051602081019091526000815290565b9050805160001415610dd3575092915050565b815115610e05578082604051602001610ded929190611df0565b60405160208183030381529060405292505050919050565b610e0e84611561565b949350505050565b610e1e611a22565b6000610e2960085490565b6000908152600b6020908152604091829020825160a0810184528154815260018201546001600160a01b03908116938201939093526002820154909216928201929092526003820154606082015260049091015460ff161515608082015292915050565b60606000610e9a60085490565b905060008167ffffffffffffffff811115610ec557634e487b7160e01b600052604160045260246000fd5b604051908082528060200260200182016040528015610efe57816020015b610eeb611a22565b815260200190600190039081610ee35790505b5090506000805b83811015610fcb576000610f1a826001611faf565b6000818152600b6020908152604091829020825160a0810184528154815260018201546001600160a01b039081169382019390935260028201549092169282019290925260038201546060820152600482015460ff161515608082015286519293509091869086908110610f9e57634e487b7160e01b600052603260045260246000fd5b6020908102919091010152610fb4600185611faf565b935050508080610fc39061202e565b915050610f05565b50909392505050565b60006001600160e01b031982166380ac58cd60e01b148061100557506001600160e01b03198216635b5e139f60e01b145b8061043457506301ffc9a760e01b6001600160e01b0319831614610434565b6000818152600260205260409020546001600160a01b03166110835760405162461bcd60e51b8152602060048201526018602482015277115490cdcc8c4e881a5b9d985b1a59081d1bdad95b88125160421b60448201526064016107ad565b50565b600081815260046020526040902080546001600160a01b0319166001600160a01b03841690811790915581906110bb8261089f565b6001600160a01b03167f8c5be1e5ebec7d5bd14f71427d1e84f3dd0314c0f7b2291e5b200ac8c7c3b92560405160405180910390a45050565b6000806111008361089f565b9050806001600160a01b0316846001600160a01b0316148061114757506001600160a01b0380821660009081526005602090815260408083209388168352929052205460ff165b80610e0e5750836001600160a01b031661116084610711565b6001600160a01b031614949350505050565b826001600160a01b03166111858261089f565b6001600160a01b0316146111ab5760405162461bcd60e51b81526004016107ad90611f5c565b6001600160a01b03821661120d5760405162461bcd60e51b8152602060048201526024808201527f4552433732313a207472616e7366657220746f20746865207a65726f206164646044820152637265737360e01b60648201526084016107ad565b826001600160a01b03166112208261089f565b6001600160a01b0316146112465760405162461bcd60e51b81526004016107ad90611f5c565b600081815260046020908152604080832080546001600160a01b03199081169091556001600160a01b0387811680865260038552838620805460001901905590871680865283862080546001019055868652600290945282852080549092168417909155905184937fddf252ad1be2c89b69c2b068fc378daa952ba7f163c4a11628f55a4df523b3ef91a4505050565b610c648282604051806020016040528060008152506115d4565b6000828152600260205260409020546001600160a01b031661136b5760405162461bcd60e51b815260206004820152602e60248201527f45524337323155524953746f726167653a2055524920736574206f66206e6f6e60448201526d32bc34b9ba32b73a103a37b5b2b760911b60648201526084016107ad565b6000828152600660209081526040909120825161138a92840190611a50565b506040518281527ff8e1a15aba9398e019f0b49df1a4fde98ee17ae345cb5f6b5e2c27f5033e8ce79060200160405180910390a15050565b6040805160a081018252838152306020808301828152338486018181526060860188815260016080880181815260008c8152600b9097529890952096518755925193860180546001600160a01b039586166001600160a01b03199182161790915590516002870180549190951691161790925551600384015592516004909201805492151560ff1990931692909217909155610c64919084611172565b816001600160a01b0316836001600160a01b031614156114c15760405162461bcd60e51b815260206004820152601960248201527f4552433732313a20617070726f766520746f2063616c6c65720000000000000060448201526064016107ad565b6001600160a01b03838116600081815260056020908152604080832094871680845294825291829020805460ff191686151590811790915591519182527f17307eab39ab6107e8899845ad3d59bd9653f200f220920489ca2b5937696c31910160405180910390a3505050565b611539848484611172565b61154584848484611607565b610c535760405162461bcd60e51b81526004016107ad90611f0a565b606061156c82611024565b600061158360408051602081019091526000815290565b905060008151116115a35760405180602001604052806000815250610a6b565b806115ad84611714565b6040516020016115be929190611df0565b6040516020818303038152906040529392505050565b6115de83836117bf565b6115eb6000848484611607565b61084e5760405162461bcd60e51b81526004016107ad90611f0a565b60006001600160a01b0384163b1561170957604051630a85bd0160e11b81526001600160a01b0385169063150b7a029061164b903390899088908890600401611e1f565b602060405180830381600087803b15801561166557600080fd5b505af1925050508015611695575060408051601f3d908101601f1916820190925261169291810190611cfa565b60015b6116ef573d8080156116c3576040519150601f19603f3d011682016040523d82523d6000602084013e6116c8565b606091505b5080516116e75760405162461bcd60e51b81526004016107ad90611f0a565b805181602001fd5b6001600160e01b031916630a85bd0160e11b149050610e0e565b506001949350505050565b606060006117218361194a565b600101905060008167ffffffffffffffff81111561174f57634e487b7160e01b600052604160045260246000fd5b6040519080825280601f01601f191660200182016040528015611779576020820181803683370190505b5090508181016020015b600019016f181899199a1a9b1b9c1cb0b131b232b360811b600a86061a8153600a85049450846117b2576117b7565b611783565b509392505050565b6001600160a01b0382166118155760405162461bcd60e51b815260206004820181905260248201527f4552433732313a206d696e7420746f20746865207a65726f206164647265737360448201526064016107ad565b6000818152600260205260409020546001600160a01b03161561187a5760405162461bcd60e51b815260206004820152601c60248201527f4552433732313a20746f6b656e20616c7265616479206d696e7465640000000060448201526064016107ad565b6000818152600260205260409020546001600160a01b0316156118df5760405162461bcd60e51b815260206004820152601c60248201527f4552433732313a20746f6b656e20616c7265616479206d696e7465640000000060448201526064016107ad565b6001600160a01b038216600081815260036020908152604080832080546001019055848352600290915280822080546001600160a01b0319168417905551839291907fddf252ad1be2c89b69c2b068fc378daa952ba7f163c4a11628f55a4df523b3ef908290a45050565b60008072184f03e93ff9f4daa797ed6e38ed64bf6a1f0160401b83106119895772184f03e93ff9f4daa797ed6e38ed64bf6a1f0160401b830492506040015b6d04ee2d6d415b85acef810000000083106119b5576d04ee2d6d415b85acef8100000000830492506020015b662386f26fc1000083106119d357662386f26fc10000830492506010015b6305f5e10083106119eb576305f5e100830492506008015b61271083106119ff57612710830492506004015b60648310611a11576064830492506002015b600a83106104345760010192915050565b6040805160a08101825260008082526020820181905291810182905260608101829052608081019190915290565b828054611a5c90611ff3565b90600052602060002090601f016020900481019282611a7e5760008555611ac4565b82601f10611a9757805160ff1916838001178555611ac4565b82800160010185558215611ac4579182015b82811115611ac4578251825591602001919060010190611aa9565b50611ad0929150611ad4565b5090565b5b80821115611ad05760008155600101611ad5565b600067ffffffffffffffff80841115611b0457611b0461205f565b604051601f8501601f19908116603f01168101908282118183101715611b2c57611b2c61205f565b81604052809350858152868686011115611b4557600080fd5b858560208301376000602087830101525050509392505050565b80356001600160a01b0381168114611b7657600080fd5b919050565b600060208284031215611b8c578081fd5b610a6b82611b5f565b60008060408385031215611ba7578081fd5b611bb083611b5f565b9150611bbe60208401611b5f565b90509250929050565b600080600060608486031215611bdb578081fd5b611be484611b5f565b9250611bf260208501611b5f565b9150604084013590509250925092565b60008060008060808587031215611c17578081fd5b611c2085611b5f565b9350611c2e60208601611b5f565b925060408501359150606085013567ffffffffffffffff811115611c50578182fd5b8501601f81018713611c60578182fd5b611c6f87823560208401611ae9565b91505092959194509250565b60008060408385031215611c8d578182fd5b611c9683611b5f565b915060208301358015158114611caa578182fd5b809150509250929050565b60008060408385031215611cc7578182fd5b611cd083611b5f565b946020939093013593505050565b600060208284031215611cef578081fd5b8135610a6b81612075565b600060208284031215611d0b578081fd5b8151610a6b81612075565b60008060408385031215611d28578182fd5b823567ffffffffffffffff811115611d3e578283fd5b8301601f81018513611d4e578283fd5b611d5d85823560208401611ae9565b95602094909401359450505050565b600060208284031215611d7d578081fd5b5035919050565b60008151808452611d9c816020860160208601611fc7565b601f01601f19169290920160200192915050565b805182526020808201516001600160a01b039081169184019190915260408083015190911690830152606080820151908301526080908101511515910152565b60008351611e02818460208801611fc7565b835190830190611e16818360208801611fc7565b01949350505050565b6001600160a01b0385811682528416602082015260408101839052608060608201819052600090611e5290830184611d84565b9695505050505050565b6020808252825182820181905260009190848201906040850190845b81811015611e9e57611e8b838551611db0565b9284019260a09290920191600101611e78565b50909695505050505050565b602081526000610a6b6020830184611d84565b6020808252602d908201527f4552433732313a2063616c6c6572206973206e6f7420746f6b656e206f776e6560408201526c1c881bdc88185c1c1c9bdd9959609a1b606082015260800190565b60208082526032908201527f4552433732313a207472616e7366657220746f206e6f6e20455243373231526560408201527131b2b4bb32b91034b6b83632b6b2b73a32b960711b606082015260800190565b60208082526025908201527f4552433732313a207472616e736665722066726f6d20696e636f72726563742060408201526437bbb732b960d91b606082015260800190565b60a081016104348284611db0565b60008219821115611fc257611fc2612049565b500190565b60005b83811015611fe2578181015183820152602001611fca565b83811115610c535750506000910152565b600181811c9082168061200757607f821691505b6020821081141561202857634e487b7160e01b600052602260045260246000fd5b50919050565b600060001982141561204257612042612049565b5060010190565b634e487b7160e01b600052601160045260246000fd5b634e487b7160e01b600052604160045260246000fd5b6001600160e01b03198116811461108357600080fdfea264697066735822122024282f5957f0700b592fdf1e6e4ea21e2d52c63459c62517da4a5a2fa1d0333964736f6c63430008040033",
  "linkReferences": {},
  "deployedLinkReferences": {}
}